S00C0000746573742E7372656358
S113000071C000008EC000008CC000008AC00000D7
S113001088C0000086C0000084C0000082C00000C8
S113002080C000007EC000007CC000007AC00000D8
S113003078C0000076C0000074C0000072C00000E8
S113004070C000006EC000006CC000006AC00000F8
S113005068C0000066C0000064C0000062C0000008
S113006060C00000D6C300005CC000005AC000009D
S113007058C0000056C0000054C0000052C0000028
S113008050C000004EC000004CC000004AC0000038
S113009000C4000046C0000044C0000042C000008C
S11300A040C000003EC000003CC000003AC0000058
S11300B038C0000036C0000034C0000032C0000068
S11300C030C000002EC000002CC0000022C400007C
S11300D028C0000026C000005CC4000022C000004C
S11300E020C0000011241FBECFEFD1E2DEBFCDBF80
S11300F000E00CBF12E0A0E0B2E0E0EBFAE000E0C8
S11301000BBF02C007900D92A436B107D9F724E0C3
S1130110A4E6B2E001C01D92AC36B207E1F702D00A
S1130120C5C46ECF61E273E080E895E246D061E237
S113013073E080E895E2EFD061E273E080E895E255
S113014098D161E273E080E895E241D280E092E0E8
S11301500CD389E192E01ED382E392E030D38BE4A6
S113016092E042D38091EB03813029F48CEE93E04A
S1130170FCD21092EB0380916603813029F488E667
S113018093E0F3D2109266038091E803813029F45E
S113019086EE92E0EAD21092E8038091EA0381307D
S11301A029F485E692E0E1D21092EA038FE39CE918
S11301B00197F1F700C00000D5CFEF92FF920F93A3
S11301C01F93CF93DF937B019C0140E050E060E4F8
S11301D072E48FE090E01DD4E90121978701169520
S11301E00795169507959801ABE7B4E12ED4AC01B9
S11301F05695479524E6249FC001259F900D112410
S1130200A701481B590B9A01ADECBCEC1ED4FC01B0
S1130210F695E795F695E795F695E7959F01220FF4
S1130220331FCF01880F991F880F991F880F991FBB
S1130230820F931F481B590BD093C500C093C40071
S11302401092C00088E98093C1001092C200980106
S1130250ABE7B4E1FAD39695879599278630910553
S113026081F018F4059739F01DC08730910579F0B5
S1130270089799F017C0A2ECB0E08C91897F8C9319
S113028011C0A2ECB0E08C9182608C930BC0A2EC04
S1130290B0E08C9184608C9305C0A2ECB0E08C91AA
S11302A086608C93CF0199278130910551F018F025
S11302B0029769F011C0E2ECF0E080818F7C8083CA
S11302C00BC0E2ECF0E080818062808305C0E2EC48
S11302D0F0E080818066808355274130510521F00C
S11302E04230510539F00BC0E2ECF0E08081877FA9
S11302F0808305C0E2ECF0E0808188608083109206
S1130300E5021092EB037894DF91CF911F910F9146
S1130310FF90EF900895EF92FF920F931F93CF9366
S1130320DF937B019C0140E050E060E472E48FE0E5
S113033090E06FD3E90121978701169507951695EB
S113034007959801ABE7B4E180D3AC015695479586
S113035024E6249FC001259F900D1124A701481B6A
S1130360590B9A01ADECBCEC70D3FC01F695E79502
S1130370F695E795F695E7959F01220F331FCF0178
S1130380880F991F880F991F880F991F820F931F39
S1130390481B590BD093CD00C093CC001092C800D9
S11303A088E98093C9001092CA009801ABE7B4E1D0
S11303B04CD39695879599278630910581F018F44A
S11303C0059739F01DC08730910579F0089799F0A9
S11303D017C0AAECB0E08C91897F8C9311C0AAEC71
S11303E0B0E08C9182608C930BC0AAECB0E08C914D
S11303F084608C9305C0AAECB0E08C9186608C93E9
S1130400CF0199278130910551F018F0029769F0D6
S113041011C0EAECF0E080818F7C80830BC0EAECB1
S1130420F0E080818062808305C0EAECF0E08081A6
S11304308066808355274130510521F042305105B3
S113044039F00BC0EAECF0E08081877F808305C03F
S1130450EAECF0E08081886080831092640210925C
S113046066037894DF91CF911F910F91FF90EF90E5
S11304700895EF92FF920F931F93CF93DF937B0125
S11304809C0140E050E060E472E48FE090E0C1D26F
S1130490E901219787011695079516950795980107
S11304A0ABE7B4E1D2D2AC015695479524E6249F3C
S11304B0C001259F900D1124A701481B590B9A01D7
S11304C0ADECBCECC2D2FC01F695E795F695E79548
S11304D0F695E7959F01220F331FCF01880F991FCF
S11304E0880F991F880F991F820F931F481B590B60
S11304F0D093D500C093D4001092D00088E98093A3
S1130500D1001092D2009801ABE7B4E19ED2969547
S1130510879599278630910581F018F4059739F06D
S11305201DC08730910579F0089799F017C0A2EDA6
S1130530B0E08C91897F8C9311C0A2EDB0E08C91D6
S113054082608C930BC0A2EDB0E08C9184608C939C
S113055005C0A2EDB0E08C9186608C93CF01992701
S11305608130910551F018F0029769F011C0E2ED65
S1130570F0E080818F7C80830BC0E2EDF0E080812D
S11305808062808305C0E2EDF0E080818066808334
S113059055274130510521F04230510539F00BC047
S11305A0E2EDF0E08081877F808305C0E2EDF0E03A
S11305B08081886080831092E9031092E803789424
S11305C0DF91CF911F910F91FF90EF900895EF92DB
S11305D0FF920F931F93CF93DF937B019C0140E025
S11305E050E060E472E48FE090E013D2E9012197D7
S11305F0870116950795169507959801ABE7B4E121
S113060024D2AC015695479524E6249FC001259F2A
S1130610900D1124A701481B590B9A01ADECBCECB9
S113062014D2FC01F695E795F695E795F695E795CE
S11306309F01220F331FCF01880F991F880F991F25
S1130640880F991F820F931F481B590BD0933501B4
S1130650C09334011092300188E9809331011092E3
S113066032019801ABE7B4E1F0D1969587959927CB
S11306708630910581F018F4059739F01DC0873054
S1130680910579F0089799F017C0A2E3B1E08C9135
S1130690897F8C9311C0A2E3B1E08C9182608C932A
S11306A00BC0A2E3B1E08C9184608C9305C0A2E3FB
S11306B0B1E08C9186608C93CF01992781309105AC
S11306C051F018F0029769F011C0E2E3F1E0808183
S11306D08F7C80830BC0E2E3F1E0808180628083C1
S11306E005C0E2E3F1E080818066808355274130D4
S11306F0510521F04230510539F00BC0E2E3F1E03D
S11307008081877F808305C0E2E3F1E08081886097
S11307108083109267031092EA037894DF91CF915B
S11307201F910F91FF90EF900895E0ECF0E090811D
S113073095FFFDCF8093C6000895E8ECF0E090812A
S113074095FFFDCF8093CE000895E0EDF0E0908119
S113075095FFFDCF8093D6000895E0E3F1E090810A
S113076095FFFDCF8093360108950F931F93CF9388
S1130770FC018081882351F08F01C0E0D6DFCF5F78
S1130780F801EC0FF11D80818111F8CFCF911F91F9
S11307900F9108950F931F93CF93FC0180818823B9
S11307A051F08F01C0E0C9DFCF5FF801EC0FF11DFC
S11307B080818111F8CFCF911F910F9108950F93EC
S11307C01F93CF93FC018081882351F08F01C0E0F7
S11307D0BCDFCF5FF801EC0FF11D80818111F8CFF0
S11307E0CF911F910F9108950F931F93CF93FC0105
S11307F08081882351F08F01C0E0AFDFCF5FF80123
S1130800EC0FF11D80818111F8CFCF911F910F91D1
S113081008951F920F920FB60F9211240BB60F92E8
S11308208F939F93AF93BF93EF93FF939091E502C0
S1130830911107C080E8ECEEF3E0DF011D928A9588
S1130840E9F7E0ECF0E080818823ECF78091C600C2
S1130850E92FF0E0E451FC4F80839F5F9093E50221
S11308608A3051F4E92FF0E0E451FC4F118281E029
S11308708093EB031092E502FF91EF91BF91AF914A
S11308809F918F910F900BBE0F900FBE0F901F90F2
S113089018951F920F920FB60F9211240BB60F9258
S11308A08F939F93AF93BF93EF93FF9390916402C1
S11308B0911107C080E8E8E6F3E0DF011D928A9514
S11308C0E9F7E8ECF0E080818823ECF78091CE0032
S11308D0E92FF0E0E859FC4F80839F5F9093640216
S11308E08A3051F4E92FF0E0E859FC4F118281E09D
S11308F08093660310926402FF91EF91BF91AF91D0
S11309009F918F910F900BBE0F900FBE0F901F9071
S113091018951F920F920FB60F9211240BB60F92D7
S11309208F939F93AF93BF93EF93FF939091E903BA
S1130930911107C080E8E6EEF2E0DF011D928A958E
S1130940E9F7E0EDF0E080818823ECF78091D600B0
S1130950E92FF0E0EA51FD4F80839F5F9093E90314
S11309608A3051F4E92FF0E0EA51FD4F118281E021
S11309708093E8031092E903FF91EF91BF91AF9147
S11309809F918F910F900BBE0F900FBE0F901F90F1
S113099018951F920F920FB60F9211240BB60F9257
S11309A08F939F93AF93BF93EF93FF9390916703BC
S11309B0911107C080E8E5E6F2E0DF011D928A9517
S11309C0E9F7E0E3F1E080818823ECF780913601D8
S11309D0E92FF0E0EB59FD4F80839F5F909367030D
S11309E08A3051F4E92FF0E0EB59FD4F118281E098
S11309F08093EA0310926703FF91EF91BF91AF9147
S1130A009F918F910F900BBE0F900FBE0F901F9070
S1130A101895052E97FB16F400940FD057FD05D0BA
S1130A2023D007FC02D046F408C050954095309579
S1130A3021953F4F4F4F5F4F089590958095709546
S1130A4061957F4F8F4F9F4F0895A29FB001B39F31
S1130A50C001A39F700D811D1124911DB29F700DC3
S1130A60811D1124911D0895A1E21A2EAA1BBB1BFE
S1130A70FD010DC0AA1FBB1FEE1FFF1FA217B30766
S1130A80E407F50720F0A21BB30BE40BF50B661F7C
S1130A90771F881F991F1A9469F760957095809540
S1130AA090959B01AC01BD01CF010895F894FFCF4F
S1130AB068656C6C6F20776F726C642066726F6D02
S1130AC02075617274300D0A0068656C6C6F207754
S1130AD06F726C642066726F6D2075617274310D73
S1130AE00A0068656C6C6F20776F726C64206672A4
S1130AF06F6D2075617274320D0A0068656C6C6FDD
S1130B0020776F726C642066726F6D2075617274E9
S1070B10330D0A0093
S9030000FC
